:020000040800F2
:100000000050002011080008C5070008CD070008AF
:10001000D5070008DD070008E5070008000000001C
:10002000000000000000000000000000F11A0008BD
:10003000ED07000800000000F11B0008391C000853
:10004000590800085908000859080008590800080C
:1000500059080008590800085908000859080008FC
:1000600059080008590800085908000859080008EC
:1000700059080008590800085908000859080008DC
:1000800059080008590800085908000859080008CC
:1000900059080008590800085908000859080008BC
:1000A00059080008590800085908000859080008AC
:1000B000590800085908000859080008590800089C
:1000C000590800085908000859080008590800088C
:1000D0005908000859080008F907000859080008DD
:1000E00059080008590800085908000800000000D5
:1000F0000000000000000000000000000000000000
:0C01000000000000000000005FF808F1A3
:1001100010B5054C237833B9044B13B10448AFF341
:1001200000800123237010BD10000020000000009B
:100130009828000808B5034B1BB103490348AFF3E7
:10014000008008BD0000000014000020982800086E
:1001500080B485B000AF78607B6803F00703FB6074
:100160000C4BDB68BB60BA684FF6FF031340BB6003
:10017000FB681A02BB68134343F0BF6343F40033C8
:10018000BB60044ABB68D36000BF1437BD4680BC67
:10019000704700BF00ED00E080B400AF044BDB68A7
:1001A0001B0A03F007031846BD4680BC704700BF1A
:1001B00000ED00E080B483B000AF0346FB7197F917
:1001C0000730002B0BDBFB7903F01F02064997F980
:1001D00007305B09012000FA02F241F8232000BF3A
:1001E0000C37BD4680BC704700E100E080B483B0AE
:1001F00000AF03463960FB7197F90730002B0ADB2B
:100200003B68DAB20C4997F907301201D2B20B44BD
:1002100083F800230AE03B68DAB20849FB7903F06F
:100220000F03043B1201D2B20B441A7600BF0C3705
:10023000BD4680BC704700BF00E100E000ED00E07B
:1002400080B489B000AFF860B9607A60FB6803F0F1
:100250000703FB61FB69C3F10703042B28BF0423D9
:10026000BB61FB690433062B02D9FB69033B00E049
:1002700000237B614FF0FF32BB6902FA03F3DA43DC
:10028000BB681A407B699A404FF0FF317B6901FAE5
:1002900003F3D9437B680B40134318462437BD460C
:1002A00080BC704780B400AF044B1B68034A43F026
:1002B0000103136000BFBD4680BC704700100240C0
:1002C00080B400AF064B1B6803F00203022B0CBF87
:1002D00001230023DBB21846BD4680BC704700BF37
:1002E0000010024080B483B000AF7860064B1B68FA
:1002F00023F0F8027B68DB00034913430B6000BF67
:100300000C37BD4680BC70470010024080B483B0FB
:1003100000AF7860064B5B6823F0030204497B68FA
:1003200013434B6000BF0C37BD4680BC704700BF15
:100330000010024080B400AF034B5B6803F00C0375
:100340001846BD4680BC70470010024080B483B0A0
:1003500000AF7860064B5B6823F0F00204497B68CD
:1003600013434B6000BF0C37BD4680BC704700BFD5
:100370000010024080B483B000AF7860064B5B6829
:1003800023F4E06204497B6813434B6000BF0C37E1
:10039000BD4680BC704700BF0010024080B483B0EF
:1003A00000AF7860064B5B6823F4605204497B68B9
:1003B00013434B6000BF0C37BD4680BC704700BF85
:1003C0000010024080B485B000AF7860084BDA6955
:1003D00007497B681343CB61054BDA697B6813409F
:1003E000FB60FB6800BF1437BD4680BC704700BF90
:1003F0000010024080B485B000AF7860084B9A6965
:1004000007497B6813438B61054B9A697B681340EE
:10041000FB60FB6800BF1437BD4680BC704700BF5F
:100420000010024080B483B000AF7860064B1B68B8
:1004300023F0070204497B6813430B6000BF0C37AD
:10044000BD4680BC704700BF0020024080B400AFB2
:10045000034B1B6803F007031846BD4680BC70477A
:100460000020024080B483B000AF78607B68DB6816
:1004700043F400527B68DA6000BF0C37BD4680BC95
:10048000704780B483B000AF78607B681B6923F449
:1004900090427B681A617B685B6923F02A027B6863
:1004A0005A6100BF0C37BD4680BC704780B483B032
:1004B00000AF786039607B68DB68DA433B681B0A11
:1004C00013409BB2002B0CBF01230023DBB2184664
:1004D0000C37BD4680BC704780B483B000AF7860F5
:1004E00039603B681B0A9AB27B685A6100BF0C37BF
:1004F000BD4680BC704780B485B000AF786039607D
:100500007B68DB68FB603B681B0A9BB2BB60FA68D8
:10051000BB6813401A04FB68D943BB680B401A43FD
:100520007B681A6100BF1437BD4680BC704700006D
:1005300080B400AF054B5B6823F0E063034A43F0EF
:100540000073536000BFBD4680BC7047000001408F
:1005500080B582B002AF0120FFF74CFF4FF0805012
:10056000FFF730FF0320FFF7F3FDFFF715FE03460B
:1005700000220F211846FFF763FE034619464FF08D
:10058000FF30FFF733FEFFF7D3FF00F02DF800F048
:10059000C3F800F05BF801210D4801F0AFFD0D4BF1
:1005A000019301230093002380220B490B4800F0A4
:1005B0003DFD00230193012300930023802208497D
:1005C000084800F033FD00F095FE00BFFDE700BFD6
:1005D000004400402C000020B028000871070008EB
:1005E000C0280008B907000880B500AF0020FFF759
:1005F00019FF00BFFFF72AFF0346002BFAD1102096
:10060000FFF770FEFFF74EFE00BFFFF759FE0346EF
:10061000012BFAD10020FFF799FE0020FFF7AAFE78
:100620000020FFF7BBFE0020FFF770FE00BFFFF7C2
:1006300081FE0346002BFAD1034800F04FFC02482C
:1006400000F05AFC00BF80BD00127A0080B58CB06B
:1006500000AF07F1140300221A605A609A60DA6052
:100660001A615A619A613B4600221A605A609A6088
:10067000DA601A614FF40030FFF7A4FE0420FFF7A0
:10068000B9FE40F204433B6009237B600323BB6057
:100690000023FB603B4619461D4800F096F940F6E2
:1006A00008033B6004237B603B461946184800F072
:1006B0008CF9FFF771FD0346002200211846FFF771
:1006C000BFFD034619462620FFF790FD2620FFF7C1
:1006D00071FD4FF4E1337B610023BB610023FB61BB
:1006E00000233B620C237B620023BB620023FB627E
:1006F00007F114031946074800F076FB0548FFF799
:10070000C0FE0448FFF7AEFE00BF3037BD4680BDD7
:10071000000801400044004080B586B000AF3B1D9A
:1007200000221A605A609A60DA601A611020FFF79E
:1007300061FE2020FFF75EFE0420FFF75BFE0A4902
:100740000A48FFF7C9FE084B7B600123BB60022308
:10075000FB6000233B613B1D1946044800F035F95E
:1007600000BF1837BD4680BD2000200400100140A6
:1007700080B582B000AF78600B490C48FFF7BBFE34
:1007800009490A48FFF792FE0346002B03D00848A8
:1007900001F032FF02E0074801F02EFF4FF47A70BB
:1007A00000F084FDE8E700BF2000200400100140B5
:1007B000CC280008DC28000880B483B000AF786043
:1007C00000BFFDE780B400AF00BFFDE780B400AF1D
:1007D00000BFFDE780B400AF00BFFDE780B400AF0D
:1007E00000BFFDE780B400AF00BFFDE780B400AFFD
:1007F00000BFBD4680BC704780B500AF01F052FF1E
:1008000000BF80BD80B400AF00BFBD4680BC704754
:10081000FFF7F8FF0B480C490C4A002302E0D458BC
:10082000C4500433C4188C42F9D3094A094C00233C
:1008300001E013600432A242FBD302F009F8FFF793
:1008400087FE704700000020100000203C290008AF
:1008500010000020E4490020FEE790B488B000AF0B
:10086000F860B9607A60FB681A46BB681B0E1344D7
:100870001C462268BB687B617B6993FAA3F33B61EA
:100880003B69B3FA83F3DBB29B000F2101FA03F358
:10089000DB431A40BB68FB61FB6993FAA3F3BB61BE
:1008A000BB69B3FA83F3DBB29B00796801FA03F307
:1008B0001343236000BF2037BD4690BC704790B4FF
:1008C00088B000AFF860B9607A60FB681A46BB6810
:1008D0001B0E13441C462268BB687B617B6993FA3C
:1008E000A3F33B613B69B3FA83F3DBB29B000321C3
:1008F00001FA03F3DB431A40BB68FB61FB6993FA1F
:10090000A3F3BB61BB69B3FA83F3DBB29B007968E5
:1009100001FA03F31343236000BF2037BD4690BCA8
:10092000704790B488B000AFF860B9607A60FB6837
:100930001A46BB681B0E13441C462268BB687B61C9
:100940007B6993FAA3F33B613B69B3FA83F3DBB2B0
:100950009B00042101FA03F3DB431A40BB68FB61EF
:10096000FB6993FAA3F3BB61BB69B3FA83F3DBB210
:100970009B00796801FA03F31343236000BF20371B
:10098000BD4690BC704780B487B000AFF860B960D6
:100990007A60FB68DA68BB681B0ADB431A40BB68F5
:1009A0001B0A7B617B6993FAA3F33B613B69B3FA52
:1009B00083F3DBB219467B688B401A43FB68DA602D
:1009C00000BF1C37BD4680BC704780B588B000AF03
:1009D000786039603B681B681B021B0C7B617B697C
:1009E0003B613B6993FAA3F3FB60FB68B3FA83F3C3
:1009F000DBB2FB6144E00122FB699A407B69134052
:100A0000002B3AD0FB69072B06D840F20112FB6994
:100A100002FA03F3BB6108E0FB69083B4FF00112E7
:100A200002FA03F343F08063BB613B685B68082B09
:100A300006D13B681B691A46B9697868FFF7A3FFBE
:100A40003B685B681A46B9697868FFF706FF3B6840
:100A50005B68012B03D03B685B68092B0DD13B68B9
:100A60009B681A46B9697868FFF729FF3B68DB681D
:100A70001A46B9697868FFF754FFFB690133FB61D7
:100A80007A69FB6922FA03F3002BB4D100231846DC
:100A90002037BD4680BD000080B400AF034B5B68CB
:100AA00003F00C031846BD4680BC7047001002409E
:100AB00080B400AF034B5B6803F0F0031846BD46FB
:100AC00080BC70470010024080B400AF034B5B68ED
:100AD00003F4E0631846BD4680BC70470010024036
:100AE00080B400AF034B5B6803F460531846BD4607
:100AF00080BC70470010024080B400AF034B5B68BD
:100B000003F480331846BD4680BC70470010024095
:100B100080B400AF034B5B6803F470131846BD4606
:100B200080BC70470010024080B400AF044B5B688B
:100B30005B0C03F001031846BD4680BC704700BF44
:100B40000010024080B582B000AF786000F020F85D
:100B500002467B681A607B681B68184600F03EF806
:100B600002467B685A607B685B68184600F04CF868
:100B700002467B689A607B685B68184600F058F80C
:100B800002467B68DA6000BF0837BD4680BD0000C2
:100B900080B582B000AF00237B60FFF77DFF034686
:100BA000082B0CD0082B0ED8002B02D0042B03D01E
:100BB00009E0094B7B6009E0074B7B6006E000F031
:100BC0004BF8786002E0044B7B6000BF7B681846FE
:100BD0000837BD4680BD00BF00127A0080B582B0E4
:100BE00000AF7860FFF764FF03461B0903F00F03B3
:100BF000044AD35C1A467B68D34018460837BD4682
:100C000080BD00BF1C29000880B582B000AF7860AD
:100C1000FFF75AFF03461B0A044AD35C1A467B6857
:100C2000D34018460837BD4680BD00BF2C290008B8
:100C300080B582B000AF7860FFF752FF0346DB0A51
:100C4000044AD35C1A467B68D34018460837BD4631
:100C500080BD00BF2C29000880B582B000AF002302
:100C60007B6000233B60FFF747FF38603B68002B49
:100C700004D03B68B3F5803F03D00BE00D4B7B60A5
:100C80000BE0FFF751FF034601330B4AB2FBF3F3CE
:100C90007B6002E0074B7B6000BFFFF739FF034634
:100CA0009B0C02337A6802FB03F318460837BD46F3
:100CB00080BD00BF00093D0000127A0080B483B0FF
:100CC00000AF78607B68DB6803F40053B3F5005F26
:100CD0000CBF01230023DBB218460C37BD4680BC95
:100CE000704780B483B000AF786039607B681B695F
:100CF00023F440523B681A437B681A6100BF0C37EB
:100D0000BD4680BC704780B483B000AF7860396066
:100D10007B685B6923F440723B681A437B685A61C5
:100D200000BF0C37BD4680BC7047000080B485B062
:100D300000AFF860B9607A60BA6813469B0013444C
:100D40009A001A447B689B00B2FBF3F3254AA2FB8E
:100D500003235B099BB21B0199B2BA6813469B003F
:100D600013449A001A447B689B00B2FBF3F21D4BBC
:100D7000A3FB02035B09642000FB03F3D31A1B01EE
:100D80003233184AA2FB03235B099BB203F0F00342
:100D90009BB20B4499B2BA6813469B0013449A0065
:100DA0001A447B689B00B2FBF3F20E4BA3FB0203D9
:100DB0005B09642000FB03F3D31A1B013233094A99
:100DC000A2FB03235B099BB203F00F039BB20B440E
:100DD0009BB21A46FB689A6000BF1437BD4680BCC0
:100DE000704700BF1F85EB5180B588B000AF7860B9
:100DF00039600123FB770023BB617868FFF75EFF52
:100E00000346002B45D17B68DB6823F4B05323F005
:100E10000C033A6851683A68D26811433A6812691B
:100E20000A431A437B68DA603B689B681946786816
:100E3000FFF757FF3B685B6919467868FFF763FF68
:100E400007F108031846FFF77DFE7B68134A9342BB
:100E500002D17B69BB610CE07B68114A934202D1ED
:100E60003B69BB6105E07B680E4A934201D13B6957
:100E7000BB61BB69002B0CD03B681B68002B08D002
:100E80000023FB773B681B681A46B9697868FFF74F
:100E90004DFFFB7F18462037BD4680BD003801401E
:100EA000004400400048004080B483B000AF786048
:100EB00039607A683B68B2FBF3F3074A013B536041
:100EC000054B00229A60044B05221A6000BF0C37C4
:100ED000BD4680BC704700BF10E000E080B582B026
:100EE00000AF78604FF47A717868FFF7DDFF00BFDC
:100EF0000837BD4680BD000080B483B000AF786085
:100F0000034A7B68136000BF0C37BD4680BC704746
:100F10000000002080B483B000AF78607B6803F1EC
:100F200008027B685A607B684FF0FF329A607B68EA
:100F300003F108027B68DA607B6803F108027B68D2
:100F40001A617B6800221A6000BF0C37BD4680BC66
:100F5000704780B483B000AF78607B6800221A616C
:100F600000BF0C37BD4680BC704780B485B000AF71
:100F7000786039603B681B68BB60BB68B3F1FF3FBA
:100F800003D17B681B69FB600CE07B680833FB6066
:100F900002E0FB685B68FB60FB685B681B68BA6823
:100FA0009A42F6D2FB685A683B685A603B685B68B5
:100FB0003A689A603B68FA689A60FB683A685A60D7
:100FC0003B687A681A617B681B685A1C7B681A60E8
:100FD00000BF1437BD4680BC704780B485B000AFF9
:100FE00078607B681B69FB607B685B687A689268E5
:100FF0009A607B689B687A6852685A60FB685B6895
:101000007A689A4203D17B689A68FB685A607B6869
:1010100000221A61FB681B685A1EFB681A60FB6895
:101020001B6818461437BD4680BC704780B58CB02D
:1010300004AFF860B9603B601346FB80FB889B00FF
:10104000184600F035FE78617B69002B13D05420E0
:1010500000F02EFEF861FB69002B08D0542200211D
:10106000F86901F0EDFBFB697A691A6305E07869BC
:1010700000F0BCFE01E00023FB61FB69002B13D0F4
:10108000FA8800230393FB690293FB6A0193BB6A0E
:1010900000933B68B968F86800F00EF8F86900F052
:1010A00073F80123BB6102E04FF0FF33BB61BB6902
:1010B00018462037BD4680BD80B586B000AFF860C9
:1010C000B9607A603B60BB6A1A6B7B6803F180434E
:1010D000013B9B0013443B613B6923F007033B61E9
:1010E000BB68002B1ED000237B6112E0BA687B69CD
:1010F00013441978BA6A7B69134434330A461A7068
:10110000BA687B6913441B78002B06D07B690133D6
:101110007B617B690F2BE9D900E000BFBB6A00222D
:1011200083F843203B6A042B01D904233B62BB6A4A
:101130003A6ADA62BB6A3A6A5A64BB6A043318468E
:10114000FFF707FFBB6A18331846FFF702FFBB6AB9
:10115000BA6A1A613B6AC3F10502BB6A9A61BB6A4B
:10116000BA6A5A623A68F968386900F075FC024652
:10117000BB6A1A607B6A002B02D07B6ABA6A1A606B
:1011800000BF1837BD4680BD80B584B000AF786021
:1011900000F0F4FC3E4B1B6801333D4A13603D4BAD
:1011A0001B68002B09D13B4A7B681360384B1B68D6
:1011B000012B10D100F038FB0DE0374B1B68002BE2
:1011C00009D1344B1B68DA6A7B68DB6A9A4202D821
:1011D000304A7B681360314B1B6801332F4A136020
:1011E0007B68DB6A01229A402D4B1B6813432C4A13
:1011F00013607B68DA6A2B4913469B0013449B00FB
:101200000B4404331B68FB607B68FA689A60FB68D8
:101210009A687B68DA60FB689B687A6804325A6077
:101220007B681A1DFB689A607B68DA6A13469B002C
:1012300013449B001B4A1A447B685A617B68DA6A34
:10124000184913469B0013449B000B441B68591C10
:10125000144813469B0013449B000344196000F09C
:10126000A7FC0D4B1B68002B0ED00A4B1B68DA6ADB
:101270007B68DB6A9A4207D20B4B4FF080521A60B0
:10128000BFF34F8FBFF36F8F00BF1037BD4680BDD8
:10129000080100203000002014010020240100205B
:1012A000100100203400002004ED00E080B584B07F
:1012B00000AF78600023FB607B68002B08D000F053
:1012C00055F80021786800F047FB00F05DF8F86001
:1012D000FB68002B07D1064B4FF080521A60BFF31A
:1012E0004F8FBFF36F8F00BF1037BD4680BD00BF6B
:1012F00004ED00E080B584B002AF154B01930023EC
:1013000000930023802213491348FFF78FFE786073
:101310007B68012B15D14FF0BF0383F31188BFF316
:101320006F8FBFF34F8F3B6000BF0C4B4FF0FF320E
:101330001A600B4B01221A600A4B00221A6000F05F
:10134000FDFB094B1B6800BF0837BD4680BD00BFD1
:101350002C010020EC280008F917000828010020C3
:10136000140100200C0100200400002080B400AF14
:10137000044B1B680133034A136000BFBD4680BCA9
:10138000704700BF3001002080B586B000AF002359
:101390007B6100233B6100F0F1FB684B1B68013B64
:1013A000664A1360654B1B68002B40F0C080644B9D
:1013B0001B68002B00F0BB808AE0624BDB68DB68B7
:1013C0007B617B699B6ABB607B69DB697A69126AB6
:1013D0009A607B691B6A7A69D2695A60BB685A68ED
:1013E0007B6918339A4203D17B691A6ABB685A60D9
:1013F0007B6900229A62BB681B685A1EBB681A6030
:101400007B695B697B607B699B687A69D2689A605B
:101410007B69DB687A6992685A607B685A687B6985
:1014200004339A4203D17B69DA687B685A607B692E
:1014300000225A617B681B685A1E7B681A607B69B0
:10144000DB6A01229A40404B1B6813433E4A1360FB
:101450007B69DA6A3D4913469B0013449B000B44A9
:1014600004331B683B607B693A689A603B689A6802
:101470007B69DA603B689B687A6904325A607B69F1
:101480001A1D3B689A607B69DA6A13469B00134415
:101490009B002E4A1A447B695A617B69DA6A2B49A0
:1014A00013469B0013449B000B441B68591C2748A0
:1014B00013469B0013449B00034419607B69DA6A5E
:1014C000234B1B68DB6A9A4202D3224B01221A602B
:1014D0001C4B1B68002B7FF470AF7B69002B01D085
:1014E00000F020FA1C4B1B68FB60FB68002B10D03F
:1014F00000F036F80346002B02D0164B01221A608A
:10150000FB68013BFB60FB68002BF1D1124B002212
:101510001A60104B1B68002B09D001233B610F4B55
:101520004FF080521A60BFF34F8FBFF36F8F00F000
:101530003FFB3B6918461837BD4680BD300100208F
:1015400008010020C8000020100100203400002005
:10155000300000201C0100201801002004ED00E0F4
:1015600080B588B000AF0023FB61754B1B68002B72
:1015700040F0DC80734B1B680133BB61714ABB696F
:101580001360BB69002B10D16F4B1B687B616F4BE5
:101590001B686D4A13606D4A7B6913606C4B1B6856
:1015A00001336B4A136000F0BDF96A4B1B68BA69DE
:1015B0009A42C0F0A680644B1B681B68002B04D1C4
:1015C000644B4FF0FF321A609BE05F4B1B68DB6897
:1015D000DB683B613B695B68FB60BA69FB689A4208
:1015E00003D25C4AFB6813608BE03B695B69BB60BC
:1015F0003B699B683A69D2689A603B69DB683A69E3
:1016000092685A60BB685A683B6904339A4203D1B6
:101610003B69DA68BB685A603B6900225A61BB6863
:101620001B685A1EBB681A603B699B6A002B1ED060
:101630003B699B6A7B603B69DB693A69126A9A6025
:101640003B691B6A3A69D2695A607B685A683B6990
:1016500018339A4203D13B691A6A7B685A603B6926
:1016600000229A627B681B685A1E7B681A603B697D
:10167000DB6A01229A40384B1B681343364A1360D9
:101680003B69DA6A354913469B0013449B000B44BF
:1016900004331B683B603B693A689A603B689A6810
:1016A0003B69DA603B689B683A6904325A603B697F
:1016B0001A1D3B689A603B69DA6A13469B00134423
:1016C0009B00264A1A443B695A613B69DA6A2349FE
:1016D00013469B0013449B000B441B68591C1F4876
:1016E00013469B0013449B00034419603B69DA6A6C
:1016F0001B4B1B68DB6A9A427FF65DAF0123FB61DF
:1017000059E7174B1B68DA6A144913469B001344C8
:101710009B000B441B68012B01D90123FB61114B7A
:101720001B68002B07D00123FB6104E00E4B1B68F4
:1017300001330D4A1360FB6918462037BD4680BD52
:10174000300100200C010020C0000020C400002057
:10175000200100202801002010010020340000207A
:10176000300000201C0100201801002080B485B04A
:1017700000AF1C4B1B68002B03D01B4B01221A60CF
:101780002AE0194B00221A60184B1B687B607B68AB
:10179000B3FA83F3FB70FB78C3F11F03FB60FA68B5
:1017A00013469B0013449B00114A1344BB60BB6863
:1017B0005B685A68BB685A60BB685A68BB68083384
:1017C0009A4204D1BB685B685A68BB685A60BB68C0
:1017D0005B68DB68074A136000BF1437BD4680BCF6
:1017E000704700BF300100201C01002010010020C4
:1017F000340000203000002080B582B000AF786057
:1018000000F052F8064B1B68012BF9D9054B4FF03D
:1018100080521A60BFF34F8FBFF36F8FF0E700BFA6
:101820003400002004ED00E080B582B000AF00235A
:101830007B600CE07A6813469B0013449B00124ABD
:1018400013441846FFF766FB7B6801337B607B68B7
:10185000042BEFD90D48FFF75DFB0D48FFF75AFB4E
:101860000C48FFF757FB0C48FFF754FB0B48FFF7FA
:1018700051FB0B4B054A1A600A4B054A1A6000BF20
:101880000837BD4680BD00BF34000020980000200E
:10189000AC000020C8000020DC000020F400002084
:1018A000C0000020C400002080B582B000AF19E065
:1018B00000F064F9104BDB68DB687B607B68043305
:1018C0001846FFF78AFB0D4B1B68013B0B4A136060
:1018D0000B4B1B68013B0A4A136000F069F97868FA
:1018E00000F010F8064B1B68002BE1D100BF00BFD1
:1018F0000837BD4680BD00BFDC0000200801002085
:10190000F000002080B582B000AF78607B681B6B70
:10191000184600F06BFA786800F068FA00BF0837E4
:10192000BD4680BD80B400AF094B1B681B68002B0F
:1019300004D1084B4FF0FF321A6005E0044B1B68DE
:10194000DB681B68034A136000BFBD4680BC70475C
:10195000C00000202801002080B586B000AF78606C
:101960003960364B1B687B61354B1B680433184666
:10197000FFF733FB0346002B0BD1314B1B68DB6AAF
:10198000012202FA03F3DA432E4B1B6813402D4A5F
:1019900013607B68B3F1FF3F24D13B68002B21D05B
:1019A000294B5B683B61264B1B683A699A60244B64
:1019B0001B683A699268DA60214B1A683B699B6838
:1019C00004325A601E4B1B681A1D3B699A601C4BFF
:1019D0001B681D4A5A611C4B1B6801331A4A13606D
:1019E00000BF26E07A697B681344FB60144B1B68D8
:1019F000FA685A60FA687B699A4209D2134B1A68EE
:101A00000F4B1B68043319461046FFF7AEFA10E07F
:101A10000F4B1A680A4B1B68043319461046FFF730
:101A2000A4FA0C4B1B68FA689A4202D2094AFB6876
:101A3000136000BF1837BD4680BD00BF0C010020F9
:101A40003000002010010020F4000020C40000201D
:101A5000C00000202801002080B485B000AFF860ED
:101A6000B9607A60FB68043BFB60FB684FF08072F2
:101A70001A60FB68043BFB60BB6823F00102FB6853
:101A80001A60FB68043BFB60084AFB681A60FB684D
:101A9000143BFB607A68FB681A60FB68203BFB60C4
:101AA000FB6818461437BD4680BC7047B11A000861
:101AB00080B483B000AF00233B604FF0BF0383F3DB
:101AC0001188BFF36F8FBFF34F8F7B6000BF00BFE4
:101AD0003B68002BFCD000BF00BF0C37BD4680BC6C
:101AE000704700000000000000000000000000003F
:101AF000074B19680868B0E8F00F80F30988BFF356
:101B00006F8F4FF0000080F311884EF00D0E70477C
:101B10003000002000BF00BF06480068006880F366
:101B2000088862B661B6BFF34F8FBFF36F8F00DFD7
:101B300000BF000008ED00E000BF00BF80B500AFAF
:101B40000C4B1B680B4A43F47F031360094B1B6863
:101B5000084A43F07F43136000F090F8064B0022E0
:101B60001A60FFF7D9FFFFF701FEFFF7A1FF00237F
:101B7000184680BD20ED00E00800002080B483B04E
:101B800000AF4FF0BF0383F31188BFF36F8FBFF334
:101B90004F8F7B6000BF054B1B680133034A136006
:101BA00000BF0C37BD4680BC704700BF0800002056
:101BB00080B483B000AF0A4B1B68013B084A136036
:101BC000074B1B68002B05D100237B607B6883F3E8
:101BD000118800BF00BF0C37BD4680BC704700BFF6
:101BE00008000020000000000000000000000000CD
:101BF000EFF30980BFF36F8F0D4B1A6820E9F00FE8
:101C000010602DE908404FF0BF0080F31188FFF706
:101C1000ADFD4FF0000080F31188BDE80840196861
:101C20000868B0E8F00F80F30988BFF36F8F704742
:101C30003000002000BF00BF80B582B000AF4FF081
:101C4000BF0383F31188BFF36F8FBFF34F8F7B60A8
:101C500000BFFFF785FC0346002B03D0064B4FF077
:101C600080521A6000233B603B6883F3118800BFF9
:101C700000BF0837BD4680BD04ED00E080B400AF72
:101C8000084B00221A60084B00221A60074B41F6ED
:101C90003F721A60034B07221A6000BFBD4680BC2A
:101CA000704700BF10E000E018E000E014E000E042
:101CB00080B58AB000AF78600023FB61FFF756FB68
:101CC000464B1B68002B04D100F0DCF8434B01228B
:101CD0001A607B68002B13D008231A467B6803F038
:101CE0000703D31A08337B617B69DB437A689A4226
:101CF00004D87A687B6913447B6001E000237B6031
:101D00007B68002B63DB7B68002B60D0344B1B6847
:101D10007A689A425BD8334B3B62324B1B687B62DA
:101D200004E07B6A3B627B6A1B687B627B6A5B6860
:101D30007A689A4203D97B6A1B68002BF1D17B6ACF
:101D4000294A934243D03B6A1B6808221344FB6133
:101D50007B6A1A683B6A1A607B6A5A687B68D31A86
:101D600008225200934222D97A6A7B6813443B616D
:101D70007B6A5A687B68D21A3B695A607B6A7A68C8
:101D80005A603B695B68FB60164BBB6102E0BB6954
:101D90001B68BB61BB691B685B68FA689A42F6D82E
:101DA000BB691A683B691A60BB693A691A600C4BD7
:101DB0001A687B6A5B68D31A094A13607B6A5B689E
:101DC00043F000427B6A5A607B6A00221A60FFF788
:101DD000DBFAFB6918462837BD4680BD4445002024
:101DE0000C000020344500203C45002080B586B022
:101DF00000AF78607B683B617B68002B39D008239B
:101E00005B423A6913443B613B69FB60FB685B687A
:101E1000DB0F03F00103DBB2002B2AD0FB681B6849
:101E2000002B26D1FB685B6823F00042FB685A60F8
:101E3000FFF79CFAFB685B68BB60104B7B6102E0BC
:101E40007B691B687B617B691B685B68BA689A4227
:101E5000F6D87B691A68FB681A607B69FA681A60B1
:101E6000FB685A68064B1B681344054A1360FFF76A
:101E70008BFA00BF1837BD4680BD00BF3445002037
:101E80000C00002080B483B000AF0F4B23F0070399
:101E90007B600E4A7B6813600C4B00225A600C4B2F
:101EA00044F2F8325A600A4B00221A607B683B60A9
:101EB0003B6844F2F8325A603B68054A1A6000BF3A
:101EC0000C37BD4680BC70473B01002034450020E4
:101ED0003C45002080B483B000AF78607B681B680D
:101EE00003F08003802B0CBF01230023DBB21846D4
:101EF0000C37BD4680BC704780B489B000AF7860B5
:101F00007B680C33FB60FB6853E8003FBB60BB6839
:101F100043F02003FB617B680C33FA69BA617B6193
:101F20007969BA6941E800233B613B69002BE7D13D
:101F300000BF00BF2437BD4680BC704780B489B065
:101F400000AF78607B680C33FB60FB6853E8003FB0
:101F5000BB60BB6843F08003FB617B680C33FA69AC
:101F6000BA617B617969BA6941E800233B613B69E9
:101F7000002BE7D100BF00BF2437BD4680BC7047AF
:101F800080B489B000AF78607B680C33FB60FB687D
:101F900053E8003FBB60BB6823F02003FB617B6814
:101FA0000C33FA69BA617B617969BA6941E8002347
:101FB0003B613B69002BE7D100BF00BF2437BD4622
:101FC00080BC704780B489B000AF78607B680C3308
:101FD000FB60FB6853E8003FBB60BB6823F08003F5
:101FE000FB617B680C33FA69BA617B617969BA6914
:101FF00041E800233B613B69002BE7D100BF00BFF4
:102000002437BD4680BC704780B483B000AF786091
:102010000B46FB70FA787B685A6000BF0C37BD46F0
:1020200080BC704780B487B000AFF860B9607A6058
:10203000BB681B687B61FB681B683B617B69013384
:102040007A68B3FBF2F2796801FB02F29B1A3A69F3
:102050009A420CBF01230023DBB218461C37BD4651
:1020600080BC704780B485B000AF786039603B6851
:102070001B68FB607B681B68BB60FA68BB689A42A0
:102080000CBF01230023DBB218461437BD4680BCC9
:102090007047000080B582B000AF786014491548E1
:1020A000FFF7E0FF034683F00103DBB2002B1AD0F9
:1020B0007868FFF787FF7868FFF70CFF0346002B6F
:1020C0000ED00C4B1B680C4AD35C19467868FFF79E
:1020D0009BFF084B1B680133C3F30903054A1360D8
:1020E0007868FFF72BFF00BF0837BD4680BD00BFF3
:1020F0004C490020504900204C45002080B582B05A
:1021000000AF78600B46FB70094A7B681360094A90
:10211000FB78137000F082FA012000F099FA044B6A
:102120001B681846FFF7E8FE00BF0837BD4680BDB4
:10213000DC4900204845002080B584B000AF7860BD
:1021400039602F4B1B681846FFF73CFF0023FB60EC
:1021500042E07A68FB6813441B780A2B18D14FF4CD
:10216000806228492848FFF75DFF034683F001039A
:10217000DBB2002B35D0234B1B68244A0D21D154F0
:10218000204B1B680133C3F309031E4A136005E0AB
:102190007A68FB6813441B78002B24D04FF48062CC
:1021A00018491948FFF73EFF034683F00103DBB2ED
:1021B000002B1AD07A68FB681A44124B1B681178FE
:1021C000124AD1540F4B1B680133C3F309030D4A64
:1021D0001360FB680133FB60FA683B689A42B8D32E
:1021E00004E000BF02E000BF00E000BF044B1B683A
:1021F0001846FFF74FFFFB6818461037BD4680BDF5
:10220000DC4900204C490020504900204C4500206A
:1022100080B58EB000AF78603960DDE100237B636C
:1022200002E07B6B01337B637A687B6B13441B7822
:10223000252B05D07A687B6B13441B78002BF0D1DB
:10224000796B7868FFF778FF7A687B6B13447B6063
:102250007B681B78252B40F0BF817B6801337B6056
:102260000023FB62202387F823307B685A1C7A60A6
:102270001B78253B532B00F2A98101A252F823F0D1
:10228000BF250008CD250008CD250008CD25000874
:10229000CD250008CD250008CD250008CD25000856
:1022A000CD250008CD250008CD250008D123000844
:1022B000D1230008D1230008D1230008D12300082E
:1022C000D1230008D1230008D1230008D12300081E
:1022D000D1230008CD250008CD250008CD25000814
:1022E000CD250008CD250008CD250008CD25000806
:1022F000CD250008CD250008CD250008CD250008F6
:10230000CD250008CD250008CD250008CD250008E5
:10231000CD250008CD250008CD250008CD250008D5
:10232000CD250008CD250008CD250008CD250008C5
:10233000CD250008CD250008CD250008CD250008B5
:10234000CD250008CD250008CD250008B1240008C2
:10235000CD250008CD250008CD250008CD25000895
:10236000CD250008CD250008CD250008CD25000885
:10237000CD250008CD250008052400081D240008EF
:10238000CD250008CD250008CD250008CD25000865
:102390001D240008CD250008CD250008CD25000806
:1023A000CD250008CD250008CD250008B124000862
:1023B000CD250008CD25000847240008CD250008BC
:1023C00099240008CD250008CD250008B124000877
:1023D0007B68013B1B78302B05D1FB6A002B02D1B7
:1023E000302387F82330FA6A13469B0013445B00BE
:1023F000FB627B68013B1B781A46FB6A1344303B47
:10240000FB6232E73B681A1D3A601B68BB6107F14B
:10241000180301211846FFF78FFEDDE03B681A1D07
:102420003A601B68BB6100233B63BB69002B05DA84
:10243000BB695B42BB6101237B6201E000237B62DD
:102440000A23BB623FE03B681A1D3A601B68FB61D0
:1024500000237B6302E07B6B01337B63FA697B6B58
:1024600013441B78002BF6D1796BF869FFF764FEF3
:10247000FA6A7B6B9A4240F2AE80FA6A7B6BD31A9F
:10248000FB6203E001215948FFF756FEFB6A5A1E22
:10249000FA62002BF6D19EE03B681A1D3A601B6879
:1024A000BB6100233B630A23BB6200237B620AE01B
:1024B0003B681A1D3A601B68BB6100233B63102315
:1024C000BB6200237B6201237B6307E07B6BBA6AFC
:1024D00002FB03F37B63FB6A013BFB627B6BBA6A23
:1024E00003FB02F2BB699A4209D87B6BBA6A03FB11
:1024F00002F2BB6AB2FBF3F37A6B9A42E6D07B6AD4
:10250000002B02D0FB6A013BFB627B6A002B0DD0E3
:1025100097F82330302B09D13B6B5A1C3A63383380
:102520003B442D2203F8302C00237B62FB6A012BF5
:1025300015D9FB6A0F2B12D8FB6A013BFB620BE03B
:102540003B6B5A1C3A6338333B4497F8232003F81B
:10255000302CFB6A013BFB62FB6A002BF0D17B6AEB
:10256000002B22D03B6B5A1C3A6338333B442D225C
:1025700003F8302C19E01E48BA697B6BB2FBF3F309
:10258000BA6AB3FBF2F2B96A01FB02F29B1AC218F3
:102590003B6B591C3963127838333B4403F8302CB9
:1025A0007A6BBB6AB2FBF3F37B637B6B002BE2D1EC
:1025B00007F10803396B1846FFF7BEFD0CE07B6896
:1025C000013B01211846FFF7B7FD05E00521094849
:1025D000FFF7B2FD00E000BF7B681B78002B7FF4A3
:1025E0001DAE00BF00BF3837BD4680BD08290008BA
:1025F000F42800080C2900080FB480B582B000AFA1
:1026000007F114037B6079683869FFF701FE00BFAA
:102610000837BD46BDE8804004B0704780B500AFC4
:10262000084B1B681846FFF7ABFC074B00221A60EB
:10263000064B00221A60034B1B681846FFF75CFC30
:1026400000BF80BDDC490020D8490020D4490020CB
:1026500080B582B000AF0346FB71FB79002B0BD035
:102660000D4B1B681846FFF7ADFC0C4B00221A609F
:102670000B4B00221A600AE000BF09490748FFF728
:10268000F1FC034683F00103DBB2002BF5D100BF60
:102690000837BD4680BD00BFDC49002050490020FE
:1026A0004C49002080B584B000AF5A4B1B681B68B2
:1026B000FB60584B1B68DB68BB60FB6803F0800362
:1026C000002B24D0BB6803F08003002B1FD052499D
:1026D0005248FFF7C7FC0346002B05D04D4B1B6843
:1026E0001846FFF76FFC12E04C4B1B684C4AD35C5A
:1026F000FB714A4B1B680133C3F30903474A13605C
:10270000444B1B681B68434B1B68FA795A60FB6893
:1027100003F02003002B79D0BB6803F02003002BCB
:1027200074D03C4B1B681B683A4B1B685B68DBB280
:10273000BB713C4B1B7883F00103DBB2002B3DD017
:10274000BB79082B1AD138493848FFF78BFC034670
:1027500083F00103DBB2002B10D003213448FFF7D4
:10276000EBFC314B1B68002B03D12F4B7F221A60EF
:1027700004E02D4B1B68013B2B4A1360BB790A2BED
:1027800007D12C4B93F90030002B02D0294B0022AB
:102790001A70BB790D2B05D0BB790A2B02D0BB79FF
:1027A0001B2B0BD1BB790D2B02D1224B01221A70AE
:1027B0000D23BB7101212048FFF7BEFC80221A497E
:1027C0001A48FFF72FFC034683F00103DBB2002B0E
:1027D00017D0154B1B68B979184AD154124B1B6896
:1027E000013303F07F03104A13600E4B1B7883F014
:1027F0000103DBB2002B04D0BB1D01211846FFF7FB
:102800009BFC044B1B681846FFF744FC00BF1037C5
:10281000BD4680BDDC4900204C49002050490020C5
:102820004C45002048450020D4490020D8490020CC
:1028300014290008E0490020182900085449002004
:1028400003460244934200D1704703F8011BF9E7A5
:1028500070B500260C4D0D4C641BA410A64209D186
:1028600000F01AF800260A4D0A4C641BA410A64278
:1028700005D170BD55F8043B98470136EEE755F891
:10288000043B98470136F2E7342900083429000850
:102890003429000838290008F8B500BFF8BC08BC86
:1028A0009E467047F8B500BFF8BC08BC9E4670470E
:1028B0007374617475734C45445461736B0000000C
:1028C0007377697463685461736B00007475726E1A
:1028D000206F6666204C45440A0000007475726ED5
:1028E000206F6E204C45440A0000000049444C45CE
:1028F0000000000030313233343536373839616208
:102900006364656600000000200000004552524FDD
:1029100052000000082008000A000000000000002B
:10292000000000000102030406070809000000007F
:042930000102030499
:042934003501000861
:042938001101000881
:10293C000024F40004000000AAAAAAAAF84300008C
:0400000508000811D6
:00000001FF
