:020000040800F2
:1000000000500020E9030008D5030008D7030008CA
:10001000D9030008DB030008DD030008000000002E
:10002000000000000000000000000000010E0008B9
:10003000DF03000800000000610E0008A50E0008A4
:1000400031040008310400083104000831040008BC
:1000500031040008310400083104000831040008AC
:10006000310400083104000831040008310400089C
:10007000310400083104000831040008310400088C
:10008000310400083104000831040008310400087C
:10009000310400083104000831040008310400086C
:1000A000310400083104000831040008310400085C
:1000B000310400083104000831040008310400084C
:1000C000310400083104000831040008310400083C
:1000D0003104000831040008E1030008310400087D
:1000E0003104000831040008310400080000000059
:1000F0000000000000000000000000000000000000
:0C01000000000000000000005FF808F1A3
:1001100010B5054C237833B9044B13B10448AFF341
:1001200000800123237010BD10000020000000009B
:100130001415000808B5034B1BB103490348AFF37E
:10014000008008BD00000000140000201415000805
:10015000034613F8012B002AFBD1181A0138704707
:10016000054B82B09A6902439A619B6903400193EF
:10017000019B02B0704700BF00100240FEE7000084
:1001800008B50C4C0C4D0D4EE3681A04DB4302F02D
:10019000005203F4005313432361E3689B044CBFF4
:1001A0003046284601F0AEF84FF47A7000F0A8FD12
:1001B000EAE700BF001001403A1500082C150008BE
:1001C00000F00700C0F10702031D042A28BF042223
:1001D000062B4FF0FF3398BF002003FA02F388BFCD
:1001E000033821EA030101FA00F0704708B5194B02
:1001F0001A6822F007021A601A685107FCD1164BE0
:100200001A6822F0F80242F080021A601A6842F07E
:1002100001021A601A689207FCD55A6822F0F002AF
:100220005A605A6822F4E0625A605A6822F46052B6
:100230005A605A6822F003025A605A6812F00C0F92
:10024000FBD1064800F02CFABDE80840034800F056
:1002500035BA00BF002002400010024000127A00B0
:1002600080B5504D90B00120FFF77AFFEB694E4EFC
:1002700043F08053EB61EB690F2103F0805302934D
:10028000029BF268494B22F4E0621204120C134301
:10029000F360F0680024C0F30220FFF791FF000133
:1002A000C0B286F82300FFF7A1FF10200D94FFF7DE
:1002B00057FF0420FFF754FF4FF4005301273C4839
:1002C00009A943613B4BCDE909370223CDE90B3442
:1002D00000F0AFF81C22214609A801F0EFF80894BD
:1002E000EB69042043F40033EB61EB6904A903F4E8
:1002F00000330393039BFFF733FF40F204420923CB
:10030000CDE9042303232C48CDE9063400F091F80D
:10031000042340F608012848CDE9041304A900F09D
:1003200088F8F0682146C0F30220FFF749FF402219
:10033000224B0001C0B283F826035A604FF4E13328
:10034000CDE909340C23A5F5E63509A92846CDE900
:100350000D34CDE90B440F9400F050F92B69394668
:1003600023F490432B616B69284623F02A036B61C9
:10037000EB6843F40053EB6000F0F2FF104B802277
:10038000CDE900730F4923460F4800F069FA234670
:1003900080220E49CDE900740D4800F061FA00F0AA
:1003A00039FBFEE70010024000ED00E00003FA0513
:1003B00000100140200020040008014000E100E09E
:1003C0002C00002047150008810100085515000881
:1003D0007D010008FEE7FEE7FEE7FEE7FEE7704767
:1003E00000F0E4BF70470000FFF7FCFF0B480C492A
:1003F0000C4A002302E0D458C4500433C4188C4281
:10040000F9D3094A094C002301E013600432A242E7
:10041000FBD301F05BF8FFF723FF704700000020DB
:1004200010000020AC15000810000020E449002056
:10043000FEE72DE9F04F0D680446C5F30F2595FA48
:10044000A5F20326B2FA82F204274FF0011C40F213
:10045000011E35FA02F001D1BDE8F08F012393406F
:100460002B426AD0072A88BFA2F10803D1F804A062
:100470008ABF0CFA03F30EFA02F343F08063BAF179
:10048000080F0ED1E0684FEA132898FAA8F9B9FAD4
:1004900089F920EA0808086900FA09F048EA00002A
:1004A000E0604FEA136893FAA3F9B9FA89F993FA6D
:1004B000A3FB0F20BBFA8BFB4FEA890900FA09F96D
:1004C00054F808004FEA8B0B20EA09090AFA0BFAE4
:1004D00049EA0A0A44F808A0486820F00800012800
:1004E0002BD193FAA3F9B9FA89F993FAA3F0B0FAE8
:1004F00080F04FEA890906FA09F92AEA09094FEA60
:10050000800A886800FA0AF049EA000044F8080006
:1005100093FAA3F9B9FA89F993FAA3F3B3FA83F337
:100520004FEA890907FA09F920EA0909C8689B0016
:10053000984049EA000044F80800013289E70000C9
:10054000034B044A5B68C3F30313D35CD840704782
:100550000010024068150008034B044A5B68C3F3AF
:100560000223D35CD8407047001002406015000899
:10057000034B044A5B68C3F3C223D35CD840704783
:100580000010024060150008094A5368DB0341BFB0
:1005900053680848C3F34043013348BFB0FBF3F04E
:1005A000536858BF0448C3F383430233584370472A
:1005B0000010024000127A0000093D00044B5B6805
:1005C00003F00C03082B01D1FFF7DEBF0148704791
:1005D0000010024000127A0010B50146FFF7EEFF4E
:1005E0000860FFF7ADFF48600446FFF7B5FF88607D
:1005F0002046FFF7BDFFC86010BD000030B5C368DE
:1006000004469B040D4685B002D5012005B030BDDF
:100610004B68C968C2680B43296922F4B0520B4386
:1006200022F00C021343C3600369AA6823F4405309
:100630001343036143696A6923F4407313434361BD
:100640006846FFF7C9FF134B9C4219D1039B002B4F
:10065000DBD02A68002AD8D019214B439200B3FB83
:10066000F2F36422B3FBF2F102FB11331B013233CC
:10067000B3FBF2F303EB01139BB20020A360C5E7C9
:10068000054B9C4201D1029BE1E7044B9C42BCD14B
:10069000F9E700BF00380140004400400048004036
:1006A0004FF47A73B0FBF3F000224FF0E0230138EF
:1006B00058619A6105221A6170470000014B186069
:1006C000704700BF000000204FF0FF3200F1080328
:1006D000C0E90223436003610023036070470023E5
:1006E0000361704730B50C68631C0AD103695A680E
:1006F0004A6091608B605960036808610133036050
:1007000030BD00F10802134652681568A542FAD9B7
:10071000EDE70369D0E901128A60516059688142AE
:1007200008BF5A60002202611A68013A1A6018680C
:1007300070470000F8B5204B204C06461D68206825
:100740000F460430FFF7E5FF40B922681C49D06A24
:1007500001220B68824023EA02030B60731C13D151
:1007600097B1184B21685A688A6090682168C86000
:10077000216804314160216804319160226853612D
:100780001A6801321A60F8BD2368AD195D6007D39D
:100790000D4B18682168BDE8F8400431FFF7A2BF8F
:1007A0000A4B186821680431FFF79CFF084B1A6850
:1007B000AA4288BF1D60E6E75400002030010020F7
:1007C000500000205C0000209C000020A0000020C1
:1007D00038000020064A13681968064B19B94FF013
:1007E000FF321A6070471268D2681268F9E700BFDA
:1007F000A00000203800002080B5154C154F164E83
:10080000236873B9154B1B68012BF8D94FF0E0230F
:100810004FF08052C3F8042DBFF34F8FBFF36F8F9B
:10082000EDE700F0FFFAFB68DD68281DFFF771FFB8
:100830003368013B33602368013B236000F002FB17
:10084000286B00F0D5FB284600F0D2FBD8E700BFAC
:10085000700000207400002058000020CC00002010
:100860002DE9F0474FEA820A074650460E46984661
:10087000DDF8249000F056FB054618B94FF0FF3024
:10088000BDE8F087542000F04DFB0446002800F03E
:10089000A28054220021AAF1040A00F00FFE256371
:1008A000554425F007056EB1731E04F133020F366F
:1008B00013F8011F02F8011F09B1B342F8D1002358
:1008C00084F84330089E04F1040A042E28BF04264D
:1008D0005046E6626664FFF702FFC6F1050604F1C2
:1008E0001800FFF7FCFE4246394628462461A661FF
:1008F000646200F06DFA2060B9F1000F01D0C9F810
:10090000004000F08FFA364B364E1A68364F0132EF
:100910001A603568002D53D134601B68012B1FD13C
:10092000B84640460135FFF7CFFE052D08F1140803
:10093000F7D1DFF8B8802E4D4046FFF7C5FE2846B8
:10094000FFF7C2FE2B48FFF7BFFE2B48FFF7BCFEA8
:100950002A48FFF7B9FE2A4BC3F80080294B1D60D7
:10096000294A2A4913680868013313600122E36A9F
:100970009A4002430A6014225343F9184A68906867
:10098000A260E060C0F804A0C2F808A0FA58616153
:100990000132FA5000F056FA1D4B1B6873B13368F0
:1009A000DA6AE36A9A4209D24FF0E0234FF08052AC
:1009B000C3F8042DBFF34F8FBFF36F8F01205FE7A4
:1009C000134B1A68E36A002ACAD13268D26A9A4283
:1009D00098BF3460C4E7284600F00AFB4EE700BF2A
:1009E0005800002030010020CC000020B80000207A
:1009F000A400002088000020740000205C0000207B
:100A0000A00000209C0000203C000020500000209E
:100A10004C00002013B50024104B80220193104994
:100A2000234610480094FFF71BFF012811D14FF017
:100A3000BF0383F31188BFF36F8FBFF34F8F4FF066
:100A4000FF32094B1A60094B1860094B1C6000F01B
:100A50004BFA084B1B6802B010BD00BF34000020E9
:100A600078150008F9070008380000204C00002025
:100A70005400002004000020024A13680133136070
:100A8000704700BF300000202DE9F84F484B1B682D
:100A9000002B40F08680474B1C6801341C605CB919
:100AA000454A464B116818681060454A196013683A
:100AB00001331360FFF78EFEDFF808C10020DCF879
:100AC0000030414A9C42DFF804910FD21421D9F83A
:100AD0000030DB6A4B43D358022B3D4B28BF01202B
:100AE0001B68002B18BF0120BDE8F88FDFF8C88015
:100AF000DFF8E0E0D8F800301B6823B94FF0FF338F
:100B0000CCF80030E2E7D8F80030DB68DB685968E1
:100B10008C4202D2CCF80010D8E75D69D3E9021606
:100B20008E60716069681F1DB9424FF0000108BFF7
:100B30006E6059612968013929609D6A7DB1D3E9E8
:100B400007168E607160696803F1180A51454FF00D
:100B5000000108BF6E60996229680139296001258A
:100B6000D96ADEF800608D403543CEF80050142578
:100B70004D4302EB050ADAF80460D6F808B09E602F
:100B8000C3F80CB0CBF80470B760C3F814A0535985
:100B900001335351D9F80030DB6A994288BF0120F4
:100BA000A8E70D4A00201368013313609CE700BFDB
:100BB0003000002054000020A00000209C000020F5
:100BC0004000002038000020CC0000203001002030
:100BD0004400002050000020480000202DE9F84F7C
:100BE00000F020F93E4B1A68013A1A601B682BB1DD
:100BF000002400F027F92046BDE8F88F394A126832
:100C0000002AF5D04FF0010C4FF0140E364E374F3E
:100C1000374ADFF8E080DFF8E0903FE0F368DB6818
:100C2000986AD3E907148C606160416803F1180584
:100C3000A9424FF0000108BF446099620168013980
:100C400001605869D3E902148C60616041681D1D20
:100C5000A942016808BF446001390160D96A3C6853
:100C60000CFA01F0204338600EFB01F002EB000AA1
:100C7000DAF80440D4F808B09C60C3F80CB0CBF8A4
:100C80000450A5601458C3F814A001341450D8F8C7
:100C90000000C06A814201D3C9F800C03168002950
:100CA000BCD10BB1FFF796FD144D2C6844B1012760
:100CB000114EFFF7E9FE00B13760013CF9D12C601D
:100CC0000D4B1B68002B93D04FF0E0234FF0805268
:100CD000C3F8042DBFF34F8FBFF36F8F012488E754
:100CE0003000002058000020880000205000002024
:100CF000CC000020300100204400002048000020EB
:100D000008B550B94FF0E0234FF08052C3F8042DDE
:100D1000BFF34F8FBFF36F8F08BD0021FFF7ACFE0D
:100D2000FFF708FDFFF75AFF0028EBD0F4E70000BB
:100D3000124B30B51A68124B12B101221A6030BD45
:100D40001A60104B1B68B3FA83F31425DBB2C3F1AE
:100D50001F0305FB03F20C498818446808326468D5
:100D60000A44944205FB031108BF6268446008BF4F
:100D700042604B68DA68054BE0E700BF30000020B6
:100D80004400002050000020CC0000203001002052
:100D9000002382B001934FF0BF0383F31188BFF3A8
:100DA0006F8FBFF34F8F019B002BFCD002B07047B9
:100DB00006480068006880F3088862B661B6BFF331
:100DC0004F8FBFF36F8F00DF00BF000008ED00E022
:100DD0004FF0807340F8043C054B21F0010140F8CE
:100DE000081C40F80C3C40F8202C4038704700BFED
:100DF000910D00080000000000000000000000004D
:100E0000074B19680868B0E8F00F80F30988BFF352
:100E10006F8F4FF0000080F311884EF00D0E704779
:100E2000300100204FF0BF0383F31188BFF36F8FB1
:100E3000BFF34F8F024A136801331360704700BF3E
:100E400008000020034A1368013B13600BB983F3C9
:100E5000118870470800002000000000000000001A
:100E6000EFF30980BFF36F8F0D4B1A6820E9F00F85
:100E700010602DE908404FF0BF0080F31188FFF7A4
:100E800057FF4FF0000080F31188BDE80840196853
:100E90000868B0E8F00F80F30988BFF36F8F7047E0
:100EA0003001002008B54FF0BF0383F31188BFF372
:100EB0006F8FBFF34F8FFFF7E7FD28B14FF0E023AF
:100EC0004FF08052C3F8042D002383F3118808BD2E
:100ED0004FF0E02300221A619A6141F63F725A6195
:100EE00007221A61704700004FF0E02310B500247C
:100EF000D3F8202D42F47F02C3F8202DD3F8202D03
:100F000042F07F42C3F8202DFFF7E2FF044B1C6044
:100F1000FFF74EFFFFF70CFFFFF73AFF204610BD2B
:100F200008000020F8B50446FFF7A6FD2B4801682D
:100F300071B944F2F8352A4B2A4A23F00703C2E973
:100F40000031294AC3E900250123C2E900150360E5
:100F5000002C40D004F00702A2F11103A3423AD3BF
:100F60001034A01A002836DDDFF880C0DCF80060FD
:100F7000864230D31B490B685F68874201D21D68E7
:100F800035BB194DAB4226D0121B0D68D3F800E0DB
:100F90003A44102A05F10805C1F800E00BD91918E8
:100FA0004A6058604F680F4A104612685468BC4245
:100FB000FAD30A6001605A68B61A42F000425A60D9
:100FC0000022CCF800601A60FFF708FE2846F8BD42
:100FD00019462B46D0E70025F6E700BF3401002074
:100FE0004F01002040010020380100200C000020AB
:100FF00010B50446F8B150F8043C002B1BDA50F849
:10100000082CC2B923F0004340F8043CFFF734FD3C
:1010100054F8041C084B1A461B6858688842FAD3D7
:1010200044F8083D1460054ABDE8104013680B44BD
:101030001360FFF7D3BD10BD400100200C0000205D
:1010400000F10C0353E8003F23F0800300F10C0192
:1010500041E80032002AF3D17047000038B5114B47
:10106000114D1A682B6804469A4219D0FFF7E8FF21
:1010700003681B0608D52B680C4AD35C43602B68B9
:101080000133C3F309032B6004F10C0353E8003F61
:1010900043F0800304F10C0141E80032002AF3D14F
:1010A00038BD00BFDC450020D8450020E0450020C9
:1010B000F8B51E4B044618680E460025FFF7C0FF22
:1010C0004FF00D0C1A4B1B491B4F621EB54228D026
:1010D00054780A2C23D11C68D1F800E00134C4F301
:1010E0000904A6451DD01C6807F804C01C6801341B
:1010F000C4F309041C601C68D1F800E00134C4F397
:101100000904A6450DD01C6812F801EF013507F857
:1011100004E01C680134C4F309041C60D6E7002C09
:10112000E9D1FFF79BFF2846F8BD00BF4C450020E2
:10113000DC450020D8450020E04500202DE9F04F97
:1011400006460C4689B03378002B00F0D280334637
:1011500000E032B11A781D46252A194603F1010331
:10116000F7D13046891BFFF7A3FF2B78252B01D041
:101170002E46E8E7681C20210025064616F8013BAC
:10118000642B3FD015D8392B07D82F2B2ED8252BE1
:1011900000F0AD800521584808E0582B58D0632B4B
:1011A000F8D1012154F8043B03A80393FFF780FF13
:1011B000C9E7692B26D0703BDAB2082AEAD8082B97
:1011C000E8D801A252F823F0511200089511000846
:1011D000951100081912000895110008471200081F
:1011E000951100089511000851120008302B02D10A
:1011F000002D08BF30210A2202FB05333046A3F13F
:101200003005BAE754F8047B002F1EDA4FF00109CD
:101210007F424FF00A0821E0D4F800804046FEF7F4
:1012200097FF074601464046FFF742FFBD4201D8FF
:10123000043488E7ED1B314F01213846FFF738FFB2
:10124000013DF9D1F4E754F8047B4FF00009E0E7E1
:101250004FF000094FF0100854F8047B4FF0010ADA
:10126000039708FB0AF3BB4204D9B9F1000F08D178
:10127000002310E0B3FBF8F25245F6D19A46013D47
:10128000EFE7302905F1FF35F2D12D238DF810302D
:101290004B464FF00009AA1E0D2A0DF1100B08D87D
:1012A0006A1E0BEB0300019300F008F9019B1D443B
:1012B0006B1EB9F1000F06D02D2103F120026A4404
:1012C00002F8101C01330E49BAF1000F02D1194681
:1012D00058466BE7B7FBFAF2B2FBF8F008FB1022B6
:1012E0008A5CBAFBF8FA0BF803200133ECE7012122
:1012F0005CE709B0BDE8F08F901500087D15000887
:101300007F1500080FB407B504A951F8040B01912B
:10131000FFF714FF03B05DF804EB04B07047000062
:101320000C4B196801F10C0050E8003F23F020033A
:1013300040E80032002AF5D1074B1A60074B1A60CB
:1013400050E8003F43F0200340E80032002AF7D184
:10135000704700BF4C4500205045002054450020F8
:1013600010B504460D4B18600D4B1970FFF7D8FFF0
:101370002046FFF765FE00230A4A13600A4A1360FD
:1013800004F10C0353E8003F43F0200304F10C0187
:1013900041E80032002AF3D110BD00BF4C450020C7
:1013A000E0490020D8450020DC450020F7B5384D45
:1013B00028680668C468370609D5210607D5354B65
:1013C000354A1968136899423AD1FFF739FEB206D7
:1013D0005CD5A3065AD5314A036843681678DBB258
:1013E0002F4C304F8DF807306EB9082B36D122685C
:1013F0003B689A4207D003212B48FFF759FE236828
:101400004BBB7F23236023683A68013303F07F03DB
:101410009A420FD023689DF80710244AD1542368BC
:10142000013303F07F03236026B901210DF107008A
:10143000FFF73EFE286803B0BDE8F040FFF70EBEA0
:1014400013681B49C95C13680133C3F309031360B4
:1014500003684160BBE72368013BD3E70A2B10D147
:10146000144B93F9002002B11E700D230121124884
:101470008DF80730FFF71CFEC5E701220D4B1A70EF
:10148000F3E70D2BF9D01B2BBDD1EEE703B0F0BD78
:101490004C450020DC450020D8450020E0490020D4
:1014A000544500205045002096150008584500205E
:1014B000E045002048450020381500080346024456
:1014C000934200D1704703F8011BF9E770B500267D
:1014D0000C4D0D4C641BA410A64209D100F01AF863
:1014E00000260A4D0A4C641BA410A64205D170BD0B
:1014F00055F8043B98470136EEE755F8043B98470A
:101500000136F2E7A4150008A4150008A415000888
:10151000A8150008F8B500BFF8BC08BC9E46704787
:0C152000F8B500BFF8BC08BC9E46704740
:10152C007475726E206F6666204C45440A007475A3
:10153C00726E206F6E204C45440A00737461747592
:10154C00734C45445461736B0073776974636854CE
:10155C0061736B0000000000010203040000000036
:10156C0000000000010203040607080949444C4529
:10157C00002000303132333435363738396162630C
:10158C00646566004552524F520008200800000066
:08159C00B4EBFF7F0100000029
:0415A4003501000805
:0415A8001101000825
:1015AC000024F40004000000AAAAAAAAF843000030
:04000005080003E903
:00000001FF
